{
  "contractName": "SimpleStorage",
  "abi": [
    {
      "constant": false,
      "inputs": [
        {
          "name": "nameParam",
          "type": "string"
        }
      ],
      "name": "set",
      "outputs": [],
      "payable": false,
      "stateMutability": "nonpayable",
      "type": "function"
    },
    {
      "constant": true,
      "inputs": [],
      "name": "getName",
      "outputs": [
        {
          "name": "",
          "type": "string"
        }
      ],
      "payable": false,
      "stateMutability": "view",
      "type": "function"
    },
    {
      "constant": true,
      "inputs": [],
      "name": "getExpireBlock",
      "outputs": [
        {
          "name": "",
          "type": "uint256"
        }
      ],
      "payable": false,
      "stateMutability": "view",
      "type": "function"
    }
  ],
  "bytecode": "0x608060405234801561001057600080fd5b506103f9806100206000396000f3fe608060405260043610610057576000357c0100000000000000000000000000000000000000000000000000000000900463ffffffff16806317d7de7c1461005c57806349724943146100ec5780634ed3885e14610117575b600080fd5b34801561006857600080fd5b506100716101df565b6040518080602001828103825283818151815260200191508051906020019080838360005b838110156100b1578082015181840152602081019050610096565b50505050905090810190601f1680156100de5780820380516001836020036101000a031916815260200191505b509250505060405180910390f35b3480156100f857600080fd5b50610101610281565b6040518082815260200191505060405180910390f35b34801561012357600080fd5b506101dd6004803603602081101561013a57600080fd5b810190808035906020019064010000000081111561015757600080fd5b82018360208201111561016957600080fd5b8035906020019184600183028401116401000000008311171561018b57600080fd5b91908080601f016020809104026020016040519081016040528093929190818152602001838380828437600081840152601f19601f82011690508083019250505050505050919291929050505061028a565b005b606060018054600181600116156101000203166002900480601f0160208091040260200160405190810160405280929190818152602001828054600181600116156101000203166002900480156102775780601f1061024c57610100808354040283529160200191610277565b820191906000526020600020905b81548152906001019060200180831161025a57829003601f168201915b5050505050905090565b60008054905090565b6000544310151515610304576040517f08c379a00000000000000000000000000000000000000000000000000000000081526004018080602001828103825260128152602001807f736f6d656f6e65206973206e617070696e67000000000000000000000000000081525060200191505060405180910390fd5b806001908051906020019061031a929190610328565b506050430160008190555050565b828054600181600116156101000203166002900490600052602060002090601f016020900481019282601f1061036957805160ff1916838001178555610397565b82800160010185558215610397579182015b8281111561039657825182559160200191906001019061037b565b5b5090506103a491906103a8565b5090565b6103ca91905b808211156103c65760008160009055506001016103ae565b5090565b9056fea165627a7a72305820593feff6c32c4c8406ab85d0f6326c0b304170fdf50f84afeeee75c4a76eef610029",
  "source": "pragma solidity ^0.5.0;\n\ncontract SimpleStorage {\n  uint expireBlock;\n  string name;\n\n  function set(string memory nameParam) public {\n    require(block.number >= expireBlock, 'someone is napping');\n    name = nameParam;\n    expireBlock = block.number + 80;\n  }\n\n  function getName() public view returns (string memory) {\n    return name;\n  }\n\n  function getExpireBlock() public view returns (uint) {\n    return expireBlock;\n  }\n}\n",
  "sourcePath": "/home/liam/git/caninap/contracts/SimpleStorage.sol",
  "compiler": {
    "name": "solc",
    "version": "0.5.0+commit.1d4f565a.Emscripten.clang"
  },
  "schemaVersion": "3.0.9",
  "updatedAt": "2019-05-31T04:21:38.238Z",
  "devdoc": {
    "methods": {}
  },
  "userdoc": {
    "methods": {}
  }
}